{
  "contractName": "DraftOhioResidentialLease",
  "abi": [
    {
      "constant": true,
      "inputs": [],
      "name": "Rent_Due_Date",
      "outputs": [
        {
          "name": "",
          "type": "string"
        }
      ],
      "payable": false,
      "stateMutability": "view",
      "type": "function"
    },
    {
      "constant": true,
      "inputs": [],
      "name": "Lease_Commencement_Date",
      "outputs": [
        {
          "name": "",
          "type": "uint256"
        }
      ],
      "payable": false,
      "stateMutability": "view",
      "type": "function"
    },
    {
      "constant": true,
      "inputs": [],
      "name": "Security_Deposit_Amount",
      "outputs": [
        {
          "name": "",
          "type": "uint256"
        }
      ],
      "payable": false,
      "stateMutability": "view",
      "type": "function"
    },
    {
      "constant": true,
      "inputs": [],
      "name": "Lease_Termination_Date",
      "outputs": [
        {
          "name": "",
          "type": "uint256"
        }
      ],
      "payable": false,
      "stateMutability": "view",
      "type": "function"
    },
    {
      "constant": true,
      "inputs": [],
      "name": "Tenant_Name",
      "outputs": [
        {
          "name": "",
          "type": "string"
        }
      ],
      "payable": false,
      "stateMutability": "view",
      "type": "function"
    },
    {
      "constant": true,
      "inputs": [],
      "name": "Effective_Date",
      "outputs": [
        {
          "name": "",
          "type": "uint256"
        }
      ],
      "payable": false,
      "stateMutability": "view",
      "type": "function"
    },
    {
      "constant": true,
      "inputs": [],
      "name": "Rent_Increase_Date",
      "outputs": [
        {
          "name": "",
          "type": "string"
        }
      ],
      "payable": false,
      "stateMutability": "view",
      "type": "function"
    },
    {
      "constant": true,
      "inputs": [],
      "name": "Daily_Animal_Restriction_Violation_Fee",
      "outputs": [
        {
          "name": "",
          "type": "uint256"
        }
      ],
      "payable": false,
      "stateMutability": "view",
      "type": "function"
    },
    {
      "constant": true,
      "inputs": [],
      "name": "Landlord_Name",
      "outputs": [
        {
          "name": "",
          "type": "string"
        }
      ],
      "payable": false,
      "stateMutability": "view",
      "type": "function"
    },
    {
      "constant": true,
      "inputs": [],
      "name": "Property_Name",
      "outputs": [
        {
          "name": "",
          "type": "string"
        }
      ],
      "payable": false,
      "stateMutability": "view",
      "type": "function"
    },
    {
      "constant": true,
      "inputs": [],
      "name": "Premises_Description",
      "outputs": [
        {
          "name": "",
          "type": "string"
        }
      ],
      "payable": false,
      "stateMutability": "view",
      "type": "function"
    },
    {
      "constant": true,
      "inputs": [],
      "name": "Landlord_Notice_Address",
      "outputs": [
        {
          "name": "",
          "type": "string"
        }
      ],
      "payable": false,
      "stateMutability": "view",
      "type": "function"
    },
    {
      "constant": false,
      "inputs": [
        {
          "name": "lname",
          "type": "string"
        },
        {
          "name": "tname",
          "type": "string"
        },
        {
          "name": "pname",
          "type": "string"
        },
        {
          "name": "lcdate",
          "type": "uint256"
        },
        {
          "name": "ltdate",
          "type": "uint256"
        },
        {
          "name": "rdue",
          "type": "string"
        },
        {
          "name": "rinc",
          "type": "string"
        },
        {
          "name": "secdep",
          "type": "uint256"
        },
        {
          "name": "premdesc",
          "type": "string"
        },
        {
          "name": "anfee",
          "type": "uint256"
        },
        {
          "name": "ladd",
          "type": "string"
        },
        {
          "name": "effdate",
          "type": "uint256"
        }
      ],
      "name": "recordContract",
      "outputs": [],
      "payable": false,
      "stateMutability": "nonpayable",
      "type": "function"
    }
  ],
  "bytecode": "0x608060405234801561001057600080fd5b50611029806100206000396000f3fe6080604052600436106100c5576000357c0100000000000000000000000000000000000000000000000000000000900463ffffffff1680632a29b5a1146100ca5780633880b2fa1461015a578063403f9ada146101855780634ca8f45f146101b05780635e89bd85146101db57806363ae5f531461026b578063958b7db3146106f057806396ec99171461071b578063ba4198e9146107ab578063c7b24419146107d6578063d6df42bb14610866578063e9c3805c146108f6578063eb20b30d14610986575b600080fd5b3480156100d657600080fd5b506100df610a16565b6040518080602001828103825283818151815260200191508051906020019080838360005b8381101561011f578082015181840152602081019050610104565b50505050905090810190601f16801561014c5780820380516001836020036101000a031916815260200191505b509250505060405180910390f35b34801561016657600080fd5b5061016f610ab4565b6040518082815260200191505060405180910390f35b34801561019157600080fd5b5061019a610aba565b6040518082815260200191505060405180910390f35b3480156101bc57600080fd5b506101c5610ac0565b6040518082815260200191505060405180910390f35b3480156101e757600080fd5b506101f0610ac6565b6040518080602001828103825283818151815260200191508051906020019080838360005b83811015610230578082015181840152602081019050610215565b50505050905090810190601f16801561025d5780820380516001836020036101000a031916815260200191505b509250505060405180910390f35b34801561027757600080fd5b506106ee600480360361018081101561028f57600080fd5b81019080803590602001906401000000008111156102ac57600080fd5b8201836020820111156102be57600080fd5b803590602001918460018302840111640100000000831117156102e057600080fd5b91908080601f016020809104026020016040519081016040528093929190818152602001838380828437600081840152601f19601f8201169050808301925050505050505091929192908035906020019064010000000081111561034357600080fd5b82018360208201111561035557600080fd5b8035906020019184600183028401116401000000008311171561037757600080fd5b91908080601f016020809104026020016040519081016040528093929190818152602001838380828437600081840152601f19601f820116905080830192505050505050509192919290803590602001906401000000008111156103da57600080fd5b8201836020820111156103ec57600080fd5b8035906020019184600183028401116401000000008311171561040e57600080fd5b91908080601f016020809104026020016040519081016040528093929190818152602001838380828437600081840152601f19601f82011690508083019250505050505050919291929080359060200190929190803590602001909291908035906020019064010000000081111561048557600080fd5b82018360208201111561049757600080fd5b803590602001918460018302840111640100000000831117156104b957600080fd5b91908080601f016020809104026020016040519081016040528093929190818152602001838380828437600081840152601f19601f8201169050808301925050505050505091929192908035906020019064010000000081111561051c57600080fd5b82018360208201111561052e57600080fd5b8035906020019184600183028401116401000000008311171561055057600080fd5b91908080601f016020809104026020016040519081016040528093929190818152602001838380828437600081840152601f19601f82011690508083019250505050505050919291929080359060200190929190803590602001906401000000008111156105bd57600080fd5b8201836020820111156105cf57600080fd5b803590602001918460018302840111640100000000831117156105f157600080fd5b91908080601f016020809104026020016040519081016040528093929190818152602001838380828437600081840152601f19601f820116905080830192505050505050509192919290803590602001909291908035906020019064010000000081111561065e57600080fd5b82018360208201111561067057600080fd5b8035906020019184600183028401116401000000008311171561069257600080fd5b91908080601f016020809104026020016040519081016040528093929190818152602001838380828437600081840152601f19601f82011690508083019250505050505050919291929080359060200190929190505050610b64565b005b3480156106fc57600080fd5b50610705610c36565b6040518082815260200191505060405180910390f35b34801561072757600080fd5b50610730610c3c565b6040518080602001828103825283818151815260200191508051906020019080838360005b83811015610770578082015181840152602081019050610755565b50505050905090810190601f16801561079d5780820380516001836020036101000a031916815260200191505b509250505060405180910390f35b3480156107b757600080fd5b506107c0610cda565b6040518082815260200191505060405180910390f35b3480156107e257600080fd5b506107eb610ce0565b6040518080602001828103825283818151815260200191508051906020019080838360005b8381101561082b578082015181840152602081019050610810565b50505050905090810190601f1680156108585780820380516001836020036101000a031916815260200191505b509250505060405180910390f35b34801561087257600080fd5b5061087b610d7e565b6040518080602001828103825283818151815260200191508051906020019080838360005b838110156108bb5780820151818401526020810190506108a0565b50505050905090810190601f1680156108e85780820380516001836020036101000a031916815260200191505b509250505060405180910390f35b34801561090257600080fd5b5061090b610e1c565b6040518080602001828103825283818151815260200191508051906020019080838360005b8381101561094b578082015181840152602081019050610930565b50505050905090810190601f1680156109785780820380516001836020036101000a031916815260200191505b509250505060405180910390f35b34801561099257600080fd5b5061099b610eba565b6040518080602001828103825283818151815260200191508051906020019080838360005b838110156109db5780820151818401526020810190506109c0565b50505050905090810190601f168015610a085780820380516001836020036101000a031916815260200191505b509250505060405180910390f35b60058054600181600116156101000203166002900480601f016020809104026020016040519081016040528092919081815260200182805460018160011615610100020316600290048015610aac5780601f10610a8157610100808354040283529160200191610aac565b820191906000526020600020905b815481529060010190602001808311610a8f57829003601f168201915b505050505081565b60035481565b60075481565b60045481565b60018054600181600116156101000203166002900480601f016020809104026020016040519081016040528092919081815260200182805460018160011615610100020316600290048015610b5c5780601f10610b3157610100808354040283529160200191610b5c565b820191906000526020600020905b815481529060010190602001808311610b3f57829003601f168201915b505050505081565b8b60009080519060200190610b7a929190610f58565b508a60019080519060200190610b91929190610f58565b508960029080519060200190610ba8929190610f58565b5088600381905550876004819055508660059080519060200190610bcd929190610f58565b508560069080519060200190610be4929190610f58565b50846007819055508360089080519060200190610c02929190610f58565b508260098190555081600a9080519060200190610c20929190610f58565b5080600b81905550505050505050505050505050565b600b5481565b60068054600181600116156101000203166002900480601f016020809104026020016040519081016040528092919081815260200182805460018160011615610100020316600290048015610cd25780601f10610ca757610100808354040283529160200191610cd2565b820191906000526020600020905b815481529060010190602001808311610cb557829003601f168201915b505050505081565b60095481565b60008054600181600116156101000203166002900480601f016020809104026020016040519081016040528092919081815260200182805460018160011615610100020316600290048015610d765780601f10610d4b57610100808354040283529160200191610d76565b820191906000526020600020905b815481529060010190602001808311610d5957829003601f168201915b505050505081565b60028054600181600116156101000203166002900480601f016020809104026020016040519081016040528092919081815260200182805460018160011615610100020316600290048015610e145780601f10610de957610100808354040283529160200191610e14565b820191906000526020600020905b815481529060010190602001808311610df757829003601f168201915b505050505081565b60088054600181600116156101000203166002900480601f016020809104026020016040519081016040528092919081815260200182805460018160011615610100020316600290048015610eb25780601f10610e8757610100808354040283529160200191610eb2565b820191906000526020600020905b815481529060010190602001808311610e9557829003601f168201915b505050505081565b600a8054600181600116156101000203166002900480601f016020809104026020016040519081016040528092919081815260200182805460018160011615610100020316600290048015610f505780601f10610f2557610100808354040283529160200191610f50565b820191906000526020600020905b815481529060010190602001808311610f3357829003601f168201915b505050505081565b828054600181600116156101000203166002900490600052602060002090601f016020900481019282601f10610f9957805160ff1916838001178555610fc7565b82800160010185558215610fc7579182015b82811115610fc6578251825591602001919060010190610fab565b5b509050610fd49190610fd8565b5090565b610ffa91905b80821115610ff6576000816000905550600101610fde565b5090565b9056fea165627a7a7230582012103cf5a89c6363e8f5465270d35ec38f614fab4f3a08506dce06171c5272ec0029",
  "source": "pragma solidity ^0.5.0;\r\n\r\ncontract DraftOhioResidentialLease {\r\n    string public Landlord_Name;\r\n    string public Tenant_Name;\r\n    string public Property_Name;\r\n    uint256 public Lease_Commencement_Date;\r\n    uint256 public Lease_Termination_Date;\r\n    string public Rent_Due_Date;\r\n    string public Rent_Increase_Date;\r\n    uint public Security_Deposit_Amount;\r\n    string public Premises_Description;\r\n    uint public Daily_Animal_Restriction_Violation_Fee;\r\n    string public Landlord_Notice_Address;\r\n    uint256 public Effective_Date;\r\n\r\n    function recordContract(string memory lname, string memory tname,\r\nstring memory pname, uint256 lcdate, uint256 ltdate,\r\nstring memory rdue, string memory rinc, uint secdep,\r\nstring memory premdesc, uint anfee,\r\nstring memory ladd, uint256 effdate\r\n    ) public {\r\n        Landlord_Name = lname;\r\n        Tenant_Name = tname;\r\n        Property_Name = pname; \r\n        Lease_Commencement_Date = lcdate;\r\n        Lease_Termination_Date = ltdate;\r\n        Rent_Due_Date = rdue;\r\n        Rent_Increase_Date = rinc;\r\n        Security_Deposit_Amount = secdep;\r\n        Premises_Description = premdesc;\r\n        Daily_Animal_Restriction_Violation_Fee = anfee;\r\n        Landlord_Notice_Address = ladd;\r\n        Effective_Date = effdate;\r\n    }\r\n}\r\n\r\n",
  "sourcePath": "C:/Users/Owner/Resilio Sync/Synced Docs/Academic/CWRU Bootcamp/Projects/OpenLease/ui/contracts/DraftOhioResidentialLease.sol",
  "compiler": {
    "name": "solc",
    "version": "0.5.0+commit.1d4f565a.Emscripten.clang"
  },
  "schemaVersion": "3.0.6",
  "updatedAt": "2019-04-03T00:58:15.924Z",
  "devdoc": {
    "methods": {}
  },
  "userdoc": {
    "methods": {}
  }
}