{
  "contractName": "BillOfSale",
  "abi": [
    {
      "constant": true,
      "inputs": [],
      "name": "seller",
      "outputs": [
        {
          "name": "",
          "type": "address"
        }
      ],
      "payable": false,
      "stateMutability": "view",
      "type": "function"
    },
    {
      "constant": true,
      "inputs": [],
      "name": "buyer",
      "outputs": [
        {
          "name": "",
          "type": "address"
        }
      ],
      "payable": false,
      "stateMutability": "view",
      "type": "function"
    },
    {
      "constant": true,
      "inputs": [],
      "name": "price",
      "outputs": [
        {
          "name": "",
          "type": "uint256"
        }
      ],
      "payable": false,
      "stateMutability": "view",
      "type": "function"
    },
    {
      "constant": true,
      "inputs": [],
      "name": "confirmed",
      "outputs": [
        {
          "name": "",
          "type": "bool"
        }
      ],
      "payable": false,
      "stateMutability": "view",
      "type": "function"
    },
    {
      "constant": true,
      "inputs": [],
      "name": "descr",
      "outputs": [
        {
          "name": "",
          "type": "string"
        }
      ],
      "payable": false,
      "stateMutability": "view",
      "type": "function"
    },
    {
      "payable": true,
      "stateMutability": "payable",
      "type": "fallback"
    },
    {
      "constant": false,
      "inputs": [
        {
          "name": "_descr",
          "type": "string"
        },
        {
          "name": "_price",
          "type": "uint256"
        },
        {
          "name": "_seller",
          "type": "address"
        },
        {
          "name": "_buyer",
          "type": "address"
        }
      ],
      "name": "recordContract",
      "outputs": [],
      "payable": false,
      "stateMutability": "nonpayable",
      "type": "function"
    },
    {
      "constant": false,
      "inputs": [],
      "name": "confirmReceipt",
      "outputs": [],
      "payable": true,
      "stateMutability": "payable",
      "type": "function"
    }
  ],
  "bytecode": "0x608060405234801561001057600080fd5b506107a2806100206000396000f3fe608060405260043610610083576000357c0100000000000000000000000000000000000000000000000000000000900463ffffffff1680630585ea691461008557806308551a53146101975780637150d8ae146101ee5780637d94ad9814610245578063a035b1fe1461024f578063a968991b1461027a578063bbba3644146102a9575b005b34801561009157600080fd5b50610195600480360360808110156100a857600080fd5b81019080803590602001906401000000008111156100c557600080fd5b8201836020820111156100d757600080fd5b803590602001918460018302840111640100000000831117156100f957600080fd5b91908080601f016020809104026020016040519081016040528093929190818152602001838380828437600081840152601f19601f82011690508083019250505050505050919291929080359060200190929190803573ffffffffffffffffffffffffffffffffffffffff169060200190929190803573ffffffffffffffffffffffffffffffffffffffff169060200190929190505050610339565b005b3480156101a357600080fd5b506101ac6103de565b604051808273ffffffffffffffffffffffffffffffffffffffff1673ffffffffffffffffffffffffffffffffffffffff16815260200191505060405180910390f35b3480156101fa57600080fd5b50610203610403565b604051808273ffffffffffffffffffffffffffffffffffffffff1673ffffffffffffffffffffffffffffffffffffffff16815260200191505060405180910390f35b61024d610429565b005b34801561025b57600080fd5b5061026461061a565b6040518082815260200191505060405180910390f35b34801561028657600080fd5b5061028f610620565b604051808215151515815260200191505060405180910390f35b3480156102b557600080fd5b506102be610633565b6040518080602001828103825283818151815260200191508051906020019080838360005b838110156102fe5780820151818401526020810190506102e3565b50505050905090810190601f16801561032b5780820380516001836020036101000a031916815260200191505b509250505060405180910390f35b836002908051906020019061034f9291906106d1565b5082600381905550816000806101000a81548173ffffffffffffffffffffffffffffffffffffffff021916908373ffffffffffffffffffffffffffffffffffffffff16021790555080600160006101000a81548173ffffffffffffffffffffffffffffffffffffffff021916908373ffffffffffffffffffffffffffffffffffffffff16021790555050505050565b6000809054906101000a900473ffffffffffffffffffffffffffffffffffffffff1681565b600160009054906101000a900473ffffffffffffffffffffffffffffffffffffffff1681565b600160009054906101000a900473ffffffffffffffffffffffffffffffffffffffff1673ffffffffffffffffffffffffffffffffffffffff163373ffffffffffffffffffffffffffffffffffffffff161415156104ee576040517f08c379a00000000000000000000000000000000000000000000000000000000081526004018080602001828103825260168152602001807f6f6e6c792062757965722063616e20636f6e6669726d0000000000000000000081525060200191505060405180910390fd5b6003543073ffffffffffffffffffffffffffffffffffffffff163114151561057e576040517f08c379a000000000000000000000000000000000000000000000000000000000815260040180806020018281038252601d8152602001807f7075726368617365207072696365206d7573742062652066756e64656400000081525060200191505060405180910390fd5b6000809054906101000a900473ffffffffffffffffffffffffffffffffffffffff1673ffffffffffffffffffffffffffffffffffffffff166108fc3073ffffffffffffffffffffffffffffffffffffffff16319081150290604051600060405180830381858888f193505050501580156105fc573d6000803e3d6000fd5b506001600460006101000a81548160ff021916908315150217905550565b60035481565b600460009054906101000a900460ff1681565b60028054600181600116156101000203166002900480601f0160208091040260200160405190810160405280929190818152602001828054600181600116156101000203166002900480156106c95780601f1061069e576101008083540402835291602001916106c9565b820191906000526020600020905b8154815290600101906020018083116106ac57829003601f168201915b505050505081565b828054600181600116156101000203166002900490600052602060002090601f016020900481019282601f1061071257805160ff1916838001178555610740565b82800160010185558215610740579182015b8281111561073f578251825591602001919060010190610724565b5b50905061074d9190610751565b5090565b61077391905b8082111561076f576000816000905550600101610757565b5090565b9056fea165627a7a723058200dfe41cebe0006e0824c6af277c99486c5f37f2968162673eaf6b2f50485afb40029",
  "source": "pragma solidity ^0.5.0;\r\n\r\ncontract BillOfSale {\r\n  address payable public seller;\r\n  address public buyer;\r\n  string public descr;\r\n  uint public price;\r\n  bool public confirmed;\r\n\r\n  function recordContract(string memory _descr, uint _price,\r\n    address payable _seller, address _buyer\r\n  ) public {\r\n    descr = _descr;\r\n    price = _price;\r\n    seller = _seller;\r\n    buyer = _buyer;\r\n  }\r\n\r\n  function () external payable { }\r\n\r\n  function confirmReceipt() public payable {\r\n    require(msg.sender == buyer, \"only buyer can confirm\");\r\n    require(address(this).balance == price, \"purchase price must be funded\");\r\n    address(seller).transfer(address(this).balance);\r\n    confirmed = true;\r\n  }\r\n}",
  "sourcePath": "C:/Users/Owner/Resilio Sync/Synced Docs/Academic/CWRU Bootcamp/Projects/OpenLease/ui/contracts/BillOfSale.sol",
  "compiler": {
    "name": "solc",
    "version": "0.5.0+commit.1d4f565a.Emscripten.clang"
  },
  "schemaVersion": "3.0.5",
  "updatedAt": "2019-03-28T19:12:05.797Z",
  "devdoc": {
    "methods": {}
  },
  "userdoc": {
    "methods": {}
  }
}